:020000040800F2
:10000000D006002029020008DF0F0008750F000845
:10001000DD0F00081F040008751000080000000034
:10002000000000000000000000000000E30F0008D6
:100030002104000800000000E10F0008E50F00089F
:10004000430200084302000843020008430200087C
:10005000430200084302000843020008430200086C
:10006000430200084302000843020008430200085C
:10007000430200084302000843020008430200084C
:10008000430200084302000843020008430200083C
:10009000430200084302000843020008430200082C
:1000A000430200084302000843020008430200081C
:1000B000430200084302000843020008430200080C
:1000C00043020008430200084302000843020008FC
:1000D00043020008430200084302000843020008EC
:1000E00043020008430200084302000843020008DC
:1000F00043020008430200084302000843020008CC
:1001000043020008430200084302000843020008BB
:1001100043020008430200084302000843020008AB
:10012000430200084302000843020008430200089B
:100130004302000800000000000000004302000825
:10014000430200084302000843020008430200087B
:10015000430200084302000843020008430200086B
:10016000430200084302000843020008430200085B
:1001700043020008430200080000000000000000E5
:10018000430200084302000800F002F800F03CF8C7
:100190000AA090E8000C82448344AAF10107DA45E2
:1001A00001D100F031F8AFF2090EBAE80F0013F0F8
:1001B000010F18BFFB1A43F001031847440F00005A
:1001C000640F0000103A24BF78C878C1FAD85207EB
:1001D00024BF30C830C144BF04680C6070470000C1
:1001E0000023002400250026103A28BF78C1FBD840
:1001F000520728BF30C148BF0B6070471FB500F0E1
:1002000071FF1FBD10B510BD00F0CFF81146FFF70C
:10021000F5FF00F041FF00F0EDF803B4FFF7F2FF47
:1002200003BC00F0F5F80000094880470948004782
:10023000FEE7FEE7FEE7FEE7FEE7FEE7FEE7FEE796
:10024000FEE7FEE704480549054A064B70470000F3
:100250006510000889010008D0000020D0060020A9
:10026000D0020020D002002053EA020C00F0698086
:100270002DE9F04B4FF00006002B1FBFB3FA83F5BA
:1002800003FA05F424FA05F65E4012BF1643B2FAEB
:1002900082F502FA05F4C5F120051EBF22FA05FC1D
:1002A00044EA0C04203556EA044C4FEA144418BFC3
:1002B000641C4FF000084FF00009904271EB030CF2
:1002C00039D3002919BFB1FA81F701FA07F6B0FA5C
:1002D00080F700FA07F6C7F120071EBF20FA07FCD7
:1002E00046EA0C062037B6FBF4FCA7EB0507103FE7
:1002F00007F01F0BCBF120060CFA0BFB2CFA06F6CD
:1003000044BFB3460026202FA4BF5E464FF0000B2B
:100310005BEA060C08BF4FF0010B19EB0B09ABFBB6
:10032000027C48EB0608C01B06FB02CC0BFB03CC8F
:1003300071EB0C01C1E70B46024641464846BDE859
:10034000F08B13B54FF000004FF00001AFF30080C9
:10035000BDE81C4070474FF0000200B513469446BC
:100360009646203922BFA0E80C50A0E80C50B1F10D
:100370002001BFF4F7AF090728BFA0E80C5048BF21
:100380000CC05DF804EB890028BF40F8042B08BFBF
:10039000704748BF20F8022B11F0804F18BF00F8BB
:1003A000012B7047704770477047754600F02CF876
:1003B000AE4605006946534620F00700854618B052
:1003C00020B5FFF73FFFBDE820404FF000064FF09B
:1003D00000074FF000084FF0000B21F00701AC467A
:1003E000ACE8C009ACE8C009ACE8C009ACE8C00999
:1003F0008D46704710B50446AFF300802046BDE837
:100400001040FFF70ABF0000004870476C00002052
:1004100001491820ABBEFEE7260002007047FEE748
:10042000704790F82020012A07D0022A05D0416A9F
:1004300041F48021416201207047006842690A430B
:10044000426100207047000010B590F82020012A7A
:1004500007D0022A05D0416A41F48021416201207F
:1004600010BD3B48D0F8002242F00102C0F8002243
:10047000D0F8002222F47C52C0F80022D0F80022EA
:100480004B6A42EA0322C0F800220A7D02F01F03F1
:1004900001229A40D0F81C329343C0F81C32CB6939
:1004A000B3B9D0F80C329343C0F80C328C894B6846
:1004B00064F31F434C6900EBC404C4F840320C8958
:1004C0000B6864F31F434C6900EBC404C4F8443266
:1004D000CB69012B16D1D0F80C321343C0F80C3283
:1004E0000C884B6864F31F434C6900EBC404C4F8E8
:1004F00040320C89CB6864F31F434C6900EBC404A1
:10050000C4F844328B69002BD0F804320ED0134368
:10051000C0F804320B69002BD0F8143208D0134312
:10052000C0F81432096A012904D008E09343EFE7C8
:100530009343F5E7D0F81C121143C0F81C12D0F811
:10054000001221F00101C0F80012002010BD0000CF
:100550000064004070B5040003D094F8200010B18E
:1005600004E0012070BD204600F082F82068016898
:1005700041F00101016000F0D5F90546052604E0CF
:1005800000F0D0F9401B0A2811D820684068C00745
:10059000F6D02068016821F00201016000F0C2F984
:1005A00005460BE000F0BEF9401B0A2806D9606A38
:1005B00040F40030606284F82060D2E72068406830
:1005C0008007EFD4207E0128206801683DD021F00B
:1005D00080010160607E01282068016838D021F028
:1005E00040010160A07E01282068016833D021F01D
:1005F00020010160E07E0128206801682ED041F0D2
:1006000010010160207F01282068016829D021F0B5
:1006100008010160607F01282068016824D021F072
:1006200004010160D4E902010843D4E90412114332
:1006300008436168491E08432168C8610020606260
:10064000012084F82000002070BD41F08001C0E747
:1006500041F04001C5E741F02001CAE721F0100157
:10066000CFE741F00801D4E741F00401D9E70000E9
:1006700010B586B0044614216846FFF76CFE144995
:100680002068884221D113480021026842F000729C
:100690000260006800F0007005900E481038026893
:1006A00042F001020260006800F0010005904FF482
:1006B000C05000900220CDE90101032003900920E1
:1006C00004906946044800F035F806B010BD0000FB
:1006D00000640040403802400000024070B504460B
:1006E00090F82000012804D0606A40F40020606285
:1006F00018E0022084F820002068016821F0010140
:10070000016000F00FF905460EE000BF00F00AF9A5
:10071000401B0A2808D9606A40F400306062052056
:1007200084F82000012070BD20684068C007EDD12A
:10073000606270BD2DE9F84FDFF8BCA100220125F1
:1007400003264FF00F090AF1040BAAF1040E00BFB3
:100750000B6805FA02F42340A34270D10F7907F029
:100760000307012F01D0022F16D187684FEA4208F4
:1007700006FA08FC27EA0C07D1F80CC00CFA08FCB2
:100780004CEA070CC0F808C04768A7430C79C4F3CB
:10079000001494403C4344600C79E443A4070AD01D
:1007A000C4684FEA420C06FA0CF7BC438F6807FA9C
:1007B0000CF72743C7600C7904F00304022C12D114
:1007C000D40800EB840CDCF820405707FF0E09FA30
:1007D00007F824EA0804D1F8108008FA07F848EA74
:1007E0000408CCF8208004684FEA420C06FA0CF7A3
:1007F000BC430F7907F0030707FA0CF7274307609C
:100800004C6814F4403F70D03C4C276847F4804754
:100810002760246822F0030704F480440094384CD5
:1008200007EB040CDCF8084897074FEA177809FA39
:1008300008F7BC43334FB84202D1002724E054E00C
:10084000314FB84201D101271EE0304FB84201D1EB
:10085000022719E02E4FB84201D1032714E02D4F93
:10086000B84201D104270FE02B4FB84201D1052730
:100870000AE02A4FB84201D1062705E0284FB842C6
:1008800001D1072700E0082707FA08F72743CCF82B
:100890000878DAF800405746D1F804C09C435FEA74
:1008A000CC2C00D51C433C60DBF800405F46D1F8FF
:1008B00004C09C435FEA8C2C00D51C433C60DEF8EE
:1008C00000407746D1F804C09C435FEA8C3C00D5D9
:1008D0001C433C60084F083F3C68D1F804C09C436F
:1008E0005FEACC3C00D51C433C60521C102AFFF44C
:1008F0002FAFBDE8F88F0000083C014044380240AB
:1009000000300140000002400004024000080240A4
:10091000000C024000100240001402400018024087
:10092000001C024001488068704700000000002061
:1009300002488168027811448160704700000020FD
:100940000B4810B5016841F400710160016841F481
:1009500080610160016841F480710160032000F052
:1009600061F80F2000F006F800F024F8002010BD18
:10097000003C024070B50D4D04464FF47A71287862
:10098000B1FBF0F00A490968B1FBF0F000F0DEFAC3
:1009900048B9102C07D200222146501E00F022F840
:1009A00000206C6070BD012070BD000000000020C0
:1009B0000C0000200A4808B5016841F4804101603C
:1009C000006800F4804000900548001F016841F075
:1009D00080510160006800F08050009008BD000068
:1009E00044380240F0B40E4B1B680C46C3F302239C
:1009F000C3F10705042D00D90425191D072901D2CB
:100A0000002300E0DB1E012606FA05F1491E214005
:100A100099409E40761E16403143F0BC00F02BBB3F
:100A20000CED00E0064900F0070208684FF6FF03EE
:100A3000184040EA0220034A104308607047000053
:100A40000CED00E00000FA052DE9F0470E46050028
:100A500065D0DFF81481D8F80000F7B200F0070085
:100A6000B04207D288F80070D8F8000000F0070004
:100A7000B04254D128683D4C810712D5400703D5B8
:100A8000206840F4E05020602878000703D52068F3
:100A900040F4604020602068A96820F0F00008431E
:100AA00020602878C0072DD03049686808390128AF
:100AB00012D0022813D0032811D009688907002911
:100AC0002DDA216821F0030101432160FFF72AFF9D
:100AD000814641F2883A0EE009688903EFE7096828
:100AE0008901ECE7FFF71EFFA0EB0901514502D990
:100AF0000320BDE8F0872068696800F00C00B0EBC7
:100B0000810FEFD1D8F80010404601F00701B14243
:100B100007D90770006800F00700B04201D001203B
:100B2000E7E72878400705D52068E96820F4E05019
:100B3000084320602878000706D52068296920F43A
:100B4000604040EAC100206000F018F82168084ABF
:100B5000C1F30311515CC8400649086006480068AB
:100B6000FFF708FF0020C4E7003C024008380240BD
:100B7000EE1000080C00002004000020154810B5FD
:100B8000006810F00C02144813D01449042A0FD046
:100B9000082A0ED10F4C241F2268236802F03F025E
:100BA0005B0207D52068C0F38810A0FB010106E0B6
:100BB000084610BD2168C1F38811A1FB0001002384
:100BC000FFF752FB2168C1F30141491C4900B0FB0A
:100BD000F1F010BD083802400024F40040787D0197
:100BE0002DE9F84F04006ED02078DFF84C93C00751
:100BF000A9F104054AD009F104000168C1F381019B
:100C0000012908D00068C0F3810002280AD1D9F870
:100C10000000400206D52868800337D560680028A8
:100C2000E1D033E06068B0F5803F10D0B0F5A02F80
:100C3000286810D020F480302860286820F48020B4
:100C400028606068A8B1FFF76DFE06460DE02868D1
:100C500040F48030F4E740F480202860F7E700BFDC
:100C6000FFF760FE801B642873D828688003F7D5DF
:100C70000CE0FFF757FE064605E000BFFFF752FE07
:100C8000801B6428F0D828688003F7D42078DFF828
:100C9000AC8280074FF0000A3ED5A748001D0168CE
:100CA00011F00C0F08D00068C0F3810002280BD1AE
:100CB000D9F80000400207D42868800716D5E068FC
:100CC000012800D112E033E1E068B8B10120C8F892
:100CD0000000FFF727FE064605E000BFFFF722FEF3
:100CE000801B0228C0D828688007F7D528682169AA
:100CF00020F0F80040EAC10028600DE0C8F800A02C
:100D0000FFF710FE064604E0FFF70CFE801B0228EA
:100D10001FD828688007F7D42078000722D5864F8F
:100D200087486169703771B101210160FFF7FAFDF1
:100D3000064604E0FFF7F6FD801B022809D8386854
:100D40008007F7D50EE0C0F800A0FFF7EBFD0646E0
:100D500005E082E0FFF7E6FD801B02287DD83868B9
:100D60008007F7D42078400768D5DFF8CCB100279A
:100D70000BF13C0BDBF80000C0000BD4DBF80010DB
:100D800041F08051CBF80010DBF80000012700F0A3
:100D9000805000906B4E3068C00510D4306840F42D
:100DA00080703060FFF7BEFD009005E0FFF7BAFDF0
:100DB0000099401A022850D83068C005F6D55E4E1A
:100DC000A0686C3601280FD00528306810D020F0BC
:100DD00001003060306820F004003060A068B8B1D5
:100DE000FFF7A0FD00900FE0306840F00100F4E74D
:100DF00040F004003060F7E7FFF794FD0099411AD6
:100E000041F28830814266D830688007F4D50EE020
:100E1000FFF788FD009007E0FFF784FD0099411A75
:100E200041F28830814256D830688007F4D42FB11F
:100E3000DBF8001021F08051CBF80010A069C8B396
:100E40003D49091D0968C1F3810102294AD00228E0
:100E5000504607D0C8F8600000E03CE0FFF762FDB4
:100E600004463BE04746C8F86000FFF75BFD0646D6
:100E700005E000BFFFF756FD801B02282BD828682D
:100E80008001F7D4D4E907010843A16A2E4A490832
:100E900002EB0141626A41EA8211084394F82C1086
:100EA00040EA0161C9F8001001203866FFF73AFDF9
:100EB000044606E03EE000BFFFF734FD001B0228B9
:100EC00009D828688001F7D534E000BFFFF72AFD74
:100ED000001B022802D90320BDE8F88F2868800192
:100EE000F4D427E00128F7D0D9F80000E26900F433
:100EF000800191421CD1226A00F03F01914217D13A
:100F000047F6C071626A0140B1EB821F10D1A26A3C
:100F10004FF0FF3300F4403103EB5202B1EB024FCC
:100F200006D194F82C1000F07060B0EB016F01D086
:100F30000120D1E70020CFE70438024000004742FB
:100F4000800E4742007000400000FFFF10B5401EB9
:100F5000B0F1807F01D3012010BD4FF0E02460612B
:100F60000F21601700F087F80020A06107202061A2
:100F7000002010BDFEE7000010B517488AB01549E3
:100F8000016010210024C0E901140903C0E90341F4
:100F900009014161047644768476C4760477447707
:100FA000FFF7D8FA08B172B6FEE71221CDE9044185
:100FB00046F2606101200890CDE90014CDE90214E9
:100FC000CDE906401420099069460348FFF73CFA32
:100FD0000AB010BD0064004010000020FEE7FEE7EC
:100FE00070477047FFF7A4BC10B592B03021684637
:100FF000FFF7B1F914210CA8FFF7ADF91748002449
:10100000016841F080510160006800F0805011904B
:101010001348016841F4804101600068069400F4BF
:101020008040119002200090012003901020049035
:101030006846FFF7D5FD08B172B6FEE70F20CDE98F
:101040000C040E940F9400210CA81094FFF7FCFCE4
:10105000002801D072B6FEE712B010BD4038024041
:10106000007000400248016841F47001016070475F
:1010700088ED00E0FEE70907090E002804DB00F117
:10108000E02080F80014704700F00F0000F1E0202D
:1010900080F8141D7047000008B5FFF751FCFFF7FA
:1010A000A3FF0E480024016841F0010101600068BF
:1010B00000F001000090FFF75FFF0948FFF70EFB0B
:1010C00002210748FFF7ADF9054802212830846066
:1010D000C0E9034140F244410160FEE7303802407C
:1010E000100000204FF04070E1EE100A7047000041
:1010F00000000000000001020304060708090000C8
:10110000201100080000002010000000C4010008A9
:101110003011000810000020C0060000E0010008A7
:101120000100000010000000000000000024F40096
:040000050800018965
:00000001FF
